{
  "address": "0x43b9Ef43D415e84aD9964567002d648b11747A8f",
  "abi": [
    {
      "inputs": [],
      "name": "APPROVALS",
      "outputs": [
        {
          "internalType": "address",
          "name": "",
          "type": "address"
        }
      ],
      "stateMutability": "view",
      "type": "function"
    },
    {
      "inputs": [],
      "name": "ISSUER",
      "outputs": [
        {
          "internalType": "address",
          "name": "",
          "type": "address"
        }
      ],
      "stateMutability": "view",
      "type": "function"
    },
    {
      "inputs": [],
      "name": "SYNTHETIX",
      "outputs": [
        {
          "internalType": "address",
          "name": "",
          "type": "address"
        }
      ],
      "stateMutability": "view",
      "type": "function"
    },
    {
      "inputs": [],
      "name": "SYSTEM_SETTINGS",
      "outputs": [
        {
          "internalType": "address",
          "name": "",
          "type": "address"
        }
      ],
      "stateMutability": "view",
      "type": "function"
    },
    {
      "inputs": [
        {
          "internalType": "address",
          "name": "_account",
          "type": "address"
        }
      ],
      "name": "checker",
      "outputs": [
        {
          "internalType": "bool",
          "name": "",
          "type": "bool"
        },
        {
          "internalType": "bytes",
          "name": "execPayload",
          "type": "bytes"
        }
      ],
      "stateMutability": "view",
      "type": "function"
    }
  ],
  "transactionHash": "0xb7584f39317d4a9d01ad6e6d35e6d8ff583a2a245d31ef003a2250e3af84f13e",
  "args": [],
  "numDeployments": 1,
  "solcInputHash": "289a43ebfab034e90494441f8bdb48cf",
  "bytecode": "0x608060405234801561001057600080fd5b506107c1806100206000396000f3fe608060405234801561001057600080fd5b50600436106100575760003560e01c8063016c683c1461005c5780634339b4211461008d5780635297a028146100ab5780637d1c3071146100c9578063fdf741c8146100e7575b600080fd5b6100766004803603810190610071919061051f565b610105565b6040516100849291906105f7565b60405180910390f35b61009561045c565b6040516100a29190610636565b60405180910390f35b6100b3610474565b6040516100c09190610636565b60405180910390f35b6100d161048c565b6040516100de9190610636565b60405180910390f35b6100ef6104a4565b6040516100fc9190610636565b60405180910390f35b60006060600073c815db16d4be6ddf2685c201937905abf338f5d773ffffffffffffffffffffffffffffffffffffffff1663ded89a7c856040518263ffffffff1660e01b81526004016101589190610636565b6040805180830381865afa158015610174573d6000803e3d6000fd5b505050506040513d601f19601f820116820180604052508101906101989190610692565b509050600073ca68a3d663483515a9d434e854ab59a41b3a523c73ffffffffffffffffffffffffffffffffffffffff1663a311c7c2866040518263ffffffff1660e01b81526004016101ea9190610636565b602060405180830381865afa158015610207573d6000803e3d6000fd5b505050506040513d601f19601f8201168201806040525081019061022b9190610708565b9050600073202ae40bed1640b09e2af7ac5719d129a498b7c873ffffffffffffffffffffffffffffffffffffffff1663b410a0346040518163ffffffff1660e01b8152600401602060405180830381865afa15801561028e573d6000803e3d6000fd5b505050506040513d601f19601f820116820180604052508101906102b29190610708565b90508082106102ff576040518060400160405280601281526020017f4d696e74206e6f74207265717565737465640000000000000000000000000000815250935060009450505050610457565b7315fd6e554874b9e70f832ed37f231ac5e142362f73ffffffffffffffffffffffffffffffffffffffff16630487261787856040518363ffffffff1660e01b815260040161034e929190610735565b602060405180830381865afa15801561036b573d6000803e3d6000fd5b505050506040513d601f19601f8201168201806040525081019061038f919061075e565b6103d7576040518060400160405280601881526020017f4e6f7420617070726f76656420666f722049737375696e670000000000000000815250935060009450505050610457565b63320223db60e01b866040516024016103f09190610636565b604051602081830303815290604052907bffffffffffffffffffffffffffffffffffffffffffffffffffffffff19166020820180517bffffffffffffffffffffffffffffffffffffffffffffffffffffffff83818316178352505050509350600194505050505b915091565b73ca68a3d663483515a9d434e854ab59a41b3a523c81565b7315fd6e554874b9e70f832ed37f231ac5e142362f81565b73d0da9cbea9c3852c5d63a95f9abcc4f6ea0f903281565b73202ae40bed1640b09e2af7ac5719d129a498b7c881565b600080fd5b600073ffffffffffffffffffffffffffffffffffffffff82169050919050565b60006104ec826104c1565b9050919050565b6104fc816104e1565b811461050757600080fd5b50565b600081359050610519816104f3565b92915050565b600060208284031215610535576105346104bc565b5b60006105438482850161050a565b91505092915050565b60008115159050919050565b6105618161054c565b82525050565b600081519050919050565b600082825260208201905092915050565b60005b838110156105a1578082015181840152602081019050610586565b60008484015250505050565b6000601f19601f8301169050919050565b60006105c982610567565b6105d38185610572565b93506105e3818560208601610583565b6105ec816105ad565b840191505092915050565b600060408201905061060c6000830185610558565b818103602083015261061e81846105be565b90509392505050565b610630816104e1565b82525050565b600060208201905061064b6000830184610627565b92915050565b600081519050610660816104f3565b92915050565b61066f8161054c565b811461067a57600080fd5b50565b60008151905061068c81610666565b92915050565b600080604083850312156106a9576106a86104bc565b5b60006106b785828601610651565b92505060206106c88582860161067d565b9150509250929050565b6000819050919050565b6106e5816106d2565b81146106f057600080fd5b50565b600081519050610702816106dc565b92915050565b60006020828403121561071e5761071d6104bc565b5b600061072c848285016106f3565b91505092915050565b600060408201905061074a6000830185610627565b6107576020830184610627565b9392505050565b600060208284031215610774576107736104bc565b5b60006107828482850161067d565b9150509291505056fea264697066735822122014bd21c97b6f1b151dceceba7d77985af651bca42a74958d54b4fa0bd1c116a464736f6c63430008100033",
  "devdoc": {
    "kind": "dev",
    "methods": {},
    "version": 1
  },
  "userdoc": {
    "kind": "user",
    "methods": {},
    "version": 1
  },
  "storageLayout": {
    "storage": [],
    "types": null
  }
}