{
  "address": "0xFCa5Bb3732185AE6AaFC65aD8C9A4fBFf21DbaaD",
  "abi": [
    {
      "inputs": [],
      "name": "APPROVALS",
      "outputs": [
        {
          "internalType": "address",
          "name": "",
          "type": "address"
        }
      ],
      "stateMutability": "view",
      "type": "function"
    },
    {
      "inputs": [],
      "name": "FEE_POOL_PROXY",
      "outputs": [
        {
          "internalType": "address",
          "name": "",
          "type": "address"
        }
      ],
      "stateMutability": "view",
      "type": "function"
    },
    {
      "inputs": [
        {
          "internalType": "address",
          "name": "_account",
          "type": "address"
        }
      ],
      "name": "checker",
      "outputs": [
        {
          "internalType": "bool",
          "name": "",
          "type": "bool"
        },
        {
          "internalType": "bytes",
          "name": "execPayload",
          "type": "bytes"
        }
      ],
      "stateMutability": "view",
      "type": "function"
    }
  ],
  "transactionHash": "0xa2802ec4ccfa01e5f22fb4502d2cf55953b0fa2f81bf56437c95140fff55192b",
  "args": [],
  "numDeployments": 1,
  "solcInputHash": "538664ca7d1a3f707b210878eec461e7",
  "bytecode": "0x608060405234801561001057600080fd5b50610915806100206000396000f3fe608060405234801561001057600080fd5b50600436106100415760003560e01c8063016c683c146100465780635297a02814610077578063b09505af14610095575b600080fd5b610060600480360381019061005b9190610633565b6100b3565b60405161006e92919061070b565b60405180910390f35b61007f6104de565b60405161008c919061074a565b60405180910390f35b61009d6104f6565b6040516100aa919061074a565b60405180910390f35b600060606100c08361050e565b60007383105d7cdd2fd9b8185bff1cb56bb1595a61861873ffffffffffffffffffffffffffffffffffffffff1663d4b839926040518163ffffffff1660e01b8152600401602060405180830381865afa158015610121573d6000803e3d6000fd5b505050506040513d601f19601f82011682018060405250810190610145919061077a565b905060007315fd6e554874b9e70f832ed37f231ac5e142362f9050600073c815db16d4be6ddf2685c201937905abf338f5d773ffffffffffffffffffffffffffffffffffffffff1663ded89a7c876040518263ffffffff1660e01b81526004016101af919061074a565b6040805180830381865afa1580156101cb573d6000803e3d6000fd5b505050506040513d601f19601f820116820180604052508101906101ef91906107d3565b5090506000808473ffffffffffffffffffffffffffffffffffffffff16630de58615896040518263ffffffff1660e01b815260040161022e919061074a565b6040805180830381865afa15801561024a573d6000803e3d6000fd5b505050506040513d601f19601f8201168201806040525081019061026e9190610849565b915091506000821480156102825750600081145b156102cd576040518060400160405280601081526020017f4e6f206665657320746f20636c61696d0000000000000000000000000000000081525095506000965050505050506104d9565b8473ffffffffffffffffffffffffffffffffffffffff166359a2f19f896040518263ffffffff1660e01b8152600401610306919061074a565b602060405180830381865afa158015610323573d6000803e3d6000fd5b505050506040513d601f19601f820116820180604052508101906103479190610889565b610391576040518060400160405280601d81526020017f4e6f7420636c61696d61626c652c2063526174696f20746f6f206c6f7700000081525095506000965050505050506104d9565b8373ffffffffffffffffffffffffffffffffffffffff166321f4ae5789856040518363ffffffff1660e01b81526004016103cc9291906108b6565b602060405180830381865afa1580156103e9573d6000803e3d6000fd5b505050506040513d601f19601f8201168201806040525081019061040d9190610889565b610457576040518060400160405280601981526020017f4e6f7420617070726f76656420666f7220636c61696d696e670000000000000081525095506000965050505050506104d9565b636466f45e60e01b88604051602401610470919061074a565b604051602081830303815290604052907bffffffffffffffffffffffffffffffffffffffffffffffffffffffff19166020820180517bffffffffffffffffffffffffffffffffffffffffffffffffffffffff838183161783525050505095506001965050505050505b915091565b7315fd6e554874b9e70f832ed37f231ac5e142362f81565b7383105d7cdd2fd9b8185bff1cb56bb1595a61861881565b6105a481604051602401610522919061074a565b6040516020818303038152906040527f2c2ecbc2000000000000000000000000000000000000000000000000000000007bffffffffffffffffffffffffffffffffffffffffffffffffffffffff19166020820180517bffffffffffffffffffffffffffffffffffffffffffffffffffffffff83818316178352505050506105a7565b50565b60008151905060006a636f6e736f6c652e6c6f679050602083016000808483855afa5050505050565b600080fd5b600073ffffffffffffffffffffffffffffffffffffffff82169050919050565b6000610600826105d5565b9050919050565b610610816105f5565b811461061b57600080fd5b50565b60008135905061062d81610607565b92915050565b600060208284031215610649576106486105d0565b5b60006106578482850161061e565b91505092915050565b60008115159050919050565b61067581610660565b82525050565b600081519050919050565b600082825260208201905092915050565b60005b838110156106b557808201518184015260208101905061069a565b60008484015250505050565b6000601f19601f8301169050919050565b60006106dd8261067b565b6106e78185610686565b93506106f7818560208601610697565b610700816106c1565b840191505092915050565b6000604082019050610720600083018561066c565b818103602083015261073281846106d2565b90509392505050565b610744816105f5565b82525050565b600060208201905061075f600083018461073b565b92915050565b60008151905061077481610607565b92915050565b6000602082840312156107905761078f6105d0565b5b600061079e84828501610765565b91505092915050565b6107b081610660565b81146107bb57600080fd5b50565b6000815190506107cd816107a7565b92915050565b600080604083850312156107ea576107e96105d0565b5b60006107f885828601610765565b9250506020610809858286016107be565b9150509250929050565b6000819050919050565b61082681610813565b811461083157600080fd5b50565b6000815190506108438161081d565b92915050565b600080604083850312156108605761085f6105d0565b5b600061086e85828601610834565b925050602061087f85828601610834565b9150509250929050565b60006020828403121561089f5761089e6105d0565b5b60006108ad848285016107be565b91505092915050565b60006040820190506108cb600083018561073b565b6108d8602083018461073b565b939250505056fea264697066735822122092fba1f18f0fa9f01396cfebf35ff0149a8ae79613807966b074feff0f16bde164736f6c63430008100033",
  "devdoc": {
    "kind": "dev",
    "methods": {},
    "version": 1
  },
  "userdoc": {
    "kind": "user",
    "methods": {},
    "version": 1
  },
  "storageLayout": {
    "storage": [],
    "types": null
  }
}